{
  "_format": "hh-sol-artifact-1",
  "contractName": "DocumentVerification",
  "sourceName": "contracts/Contract.sol",
  "abi": [
    {
      "inputs": [],
      "stateMutability": "nonpayable",
      "type": "constructor"
    },
    {
      "anonymous": false,
      "inputs": [
        {
          "indexed": false,
          "internalType": "string",
          "name": "docId",
          "type": "string"
        },
        {
          "indexed": true,
          "internalType": "address",
          "name": "uploader",
          "type": "address"
        },
        {
          "indexed": false,
          "internalType": "uint256",
          "name": "timestamp",
          "type": "uint256"
        },
        {
          "indexed": false,
          "internalType": "uint256",
          "name": "documentCount",
          "type": "uint256"
        }
      ],
      "name": "DocumentUploaded",
      "type": "event"
    },
    {
      "anonymous": false,
      "inputs": [
        {
          "indexed": true,
          "internalType": "address",
          "name": "verifier",
          "type": "address"
        },
        {
          "indexed": false,
          "internalType": "bool",
          "name": "isVerified",
          "type": "bool"
        }
      ],
      "name": "DocumentVerified",
      "type": "event"
    },
    {
      "inputs": [],
      "name": "documentCount",
      "outputs": [
        {
          "internalType": "uint256",
          "name": "",
          "type": "uint256"
        }
      ],
      "stateMutability": "view",
      "type": "function"
    },
    {
      "inputs": [
        {
          "internalType": "string",
          "name": "",
          "type": "string"
        }
      ],
      "name": "documents",
      "outputs": [
        {
          "internalType": "address",
          "name": "uploader",
          "type": "address"
        },
        {
          "internalType": "string",
          "name": "hash",
          "type": "string"
        },
        {
          "internalType": "uint256",
          "name": "timestamp",
          "type": "uint256"
        },
        {
          "internalType": "bool",
          "name": "isVerified",
          "type": "bool"
        }
      ],
      "stateMutability": "view",
      "type": "function"
    },
    {
      "inputs": [],
      "name": "owner",
      "outputs": [
        {
          "internalType": "address",
          "name": "",
          "type": "address"
        }
      ],
      "stateMutability": "view",
      "type": "function"
    },
    {
      "inputs": [
        {
          "internalType": "string",
          "name": "_hash",
          "type": "string"
        }
      ],
      "name": "uploadDocument",
      "outputs": [],
      "stateMutability": "nonpayable",
      "type": "function"
    },
    {
      "inputs": [
        {
          "internalType": "string",
          "name": "_hash",
          "type": "string"
        },
        {
          "internalType": "string",
          "name": "_docId",
          "type": "string"
        }
      ],
      "name": "verifyDocument",
      "outputs": [],
      "stateMutability": "nonpayable",
      "type": "function"
    }
  ],
  "bytecode": "0x608060405234801561001057600080fd5b50336000806101000a81548173ffffffffffffffffffffffffffffffffffffffff021916908373ffffffffffffffffffffffffffffffffffffffff160217905550610db4806100606000396000f3fe608060405234801561001057600080fd5b50600436106100575760003560e01c80638da5cb5b1461005c578063a4ca650b14610090578063a5b16b2e146101e2578063b3dd697b14610200578063b7f5576d14610361575b600080fd5b61006461041c565b604051808273ffffffffffffffffffffffffffffffffffffffff16815260200191505060405180910390f35b6101e0600480360360408110156100a657600080fd5b81019080803590602001906401000000008111156100c357600080fd5b8201836020820111156100d557600080fd5b803590602001918460018302840111640100000000831117156100f757600080fd5b91908080601f016020809104026020016040519081016040528093929190818152602001838380828437600081840152601f19601f8201169050808301925050505050505091929192908035906020019064010000000081111561015a57600080fd5b82018360208201111561016c57600080fd5b8035906020019184600183028401116401000000008311171561018e57600080fd5b91908080601f016020809104026020016040519081016040528093929190818152602001838380828437600081840152601f19601f820116905080830192505050505050509192919290505050610440565b005b6101ea6107ad565b6040518082815260200191505060405180910390f35b6102b96004803603602081101561021657600080fd5b810190808035906020019064010000000081111561023357600080fd5b82018360208201111561024557600080fd5b8035906020019184600183028401116401000000008311171561026757600080fd5b91908080601f016020809104026020016040519081016040528093929190818152602001838380828437600081840152601f19601f8201169050808301925050505050505091929192905050506107b3565b604051808573ffffffffffffffffffffffffffffffffffffffff168152602001806020018481526020018315158152602001828103825285818151815260200191508051906020019080838360005b83811015610323578082015181840152602081019050610308565b50505050905090810190601f1680156103505780820380516001836020036101000a031916815260200191505b509550505050505060405180910390f35b61041a6004803603602081101561037757600080fd5b810190808035906020019064010000000081111561039457600080fd5b8201836020820111156103a657600080fd5b803590602001918460018302840111640100000000831117156103c857600080fd5b91908080601f016020809104026020016040519081016040528093929190818152602001838380828437600081840152601f19601f8201169050808301925050505050505091929192905050506108be565b005b60008054906101000a900473ffffffffffffffffffffffffffffffffffffffff1681565b60008151116104b7576040517f08c379a000000000000000000000000000000000000000000000000000000000815260040180806020018281038252601b8152602001807f446f63756d656e742049442063616e6e6f7420626520656d707479000000000081525060200191505060405180910390fd5b600082511180156104ca57506040825111155b61053c576040517f08c379a00000000000000000000000000000000000000000000000000000000081526004018080602001828103825260138152602001807f496e76616c69642068617368206c656e6774680000000000000000000000000081525060200191505060405180910390fd5b60006001826040518082805190602001908083835b602083106105745780518252602082019150602081019050602083039250610551565b6001836020036101000a03801982511681845116808217855250505050505090500191505090815260200160405180910390209050600073ffffffffffffffffffffffffffffffffffffffff168160000160009054906101000a900473ffffffffffffffffffffffffffffffffffffffff1673ffffffffffffffffffffffffffffffffffffffff161415610653576040517f08c379a0000000000000000000000000000000000000000000000000000000008152600401808060200182810382526024815260200180610d5b6024913960400191505060405180910390fd5b82805190602001208160010160405180828054600181600116156101000203166002900480156106ba5780601f106106985761010080835404028352918201916106ba565b820191906000526020600020905b8154815290600101906020018083116106a6575b505091505060405180910390201461073a576040517f08c379a000000000000000000000000000000000000000000000000000000000815260040180806020018281038252601c8152602001807f446f63756d656e74206861736820646f6573206e6f74206d617463680000000081525060200191505060405180910390fd5b60018160030160006101000a81548160ff0219169083151502179055503373ffffffffffffffffffffffffffffffffffffffff167f77c5b13304024cf9730e107df1c3dc35c7ac4ba975185cc95c3d75d3622b160a600160405180821515815260200191505060405180910390a2505050565b60025481565b6001818051602081018201805184825260208301602085012081835280955050505050506000915090508060000160009054906101000a900473ffffffffffffffffffffffffffffffffffffffff1690806001018054600181600116156101000203166002900480601f01602080910402602001604051908101604052809291908181526020018280546001816001161561010002031660029004801561089b5780601f106108705761010080835404028352916020019161089b565b820191906000526020600020905b81548152906001019060200180831161087e57829003601f168201915b5050505050908060020154908060030160009054906101000a900460ff16905084565b60026000815480929190600101919050555060606108da610ad9565b905060405180608001604052803373ffffffffffffffffffffffffffffffffffffffff168152602001838152602001428152602001600015158152506001826040518082805190602001908083835b6020831061094c5780518252602082019150602081019050602083039250610929565b6001836020036101000a038019825116818451168082178552505050505050905001915050908152602001604051809103902060008201518160000160006101000a81548173ffffffffffffffffffffffffffffffffffffffff021916908373ffffffffffffffffffffffffffffffffffffffff16021790555060208201518160010190805190602001906109e2929190610cbd565b506040820151816002015560608201518160030160006101000a81548160ff0219169083151502179055509050503373ffffffffffffffffffffffffffffffffffffffff167f9927c2447a20ef14c19a18eb31d9c9a9efe8d59c34d762085f1da9ebf69811ef82426002546040518080602001848152602001838152602001828103825285818151815260200191508051906020019080838360005b83811015610a99578082015181840152602081019050610a7e565b50505050905090810190601f168015610ac65780820380516001836020036101000a031916815260200191505b5094505050505060405180910390a25050565b606060003342600254604051602001808473ffffffffffffffffffffffffffffffffffffffff1660601b81526014018381526020018281526020019350505050604051602081830303815290604052805190602001209050610b3a81610b40565b91505090565b606080604067ffffffffffffffff81118015610b5b57600080fd5b506040519080825280601f01601f191660200182016040528015610b8e5781602001600182028036833780820191505090505b50905060005b6020811015610c7f576000848260208110610bab57fe5b1a60f81b60f81c9050600060108260ff1681610bc357fe5b0460f81b9050600060108360ff1681610bd857fe5b0660f81b9050610be782610c89565b856002860281518110610bf657fe5b60200101907effffffffffffffffffffffffffffffffffffffffffffffffffffffffffffff1916908160001a905350610c2e81610c89565b856001600287020181518110610c4057fe5b60200101907effffffffffffffffffffffffffffffffffffffffffffffffffffffffffffff1916908160001a9053505050508080600101915050610b94565b5080915050919050565b6000600a8260f81c60ff161015610cab5760308260f81c0160f81b9050610cb8565b60578260f81c0160f81b90505b919050565b828054600181600116156101000203166002900490600052602060002090601f016020900481019282601f10610cfe57805160ff1916838001178555610d2c565b82800160010185558215610d2c579182015b82811115610d2b578251825591602001919060010190610d10565b5b509050610d399190610d3d565b5090565b5b80821115610d56576000816000905550600101610d3e565b509056fe446f63756d656e742077697468207468697320494420646f6573206e6f74206578697374a264697066735822122065ee1aebbaa412fae4e3501601459eb27cfa4bdb67fe2dbca26f9e3cf0f40ed464736f6c63430007030033",
  "linkReferences": {},
  "deployedLinkReferences": {}
}